:02000000850079
:02000100A6FE59
:02000200C6FF37
:02000300C6FE37
:02000400F20008
:02000500F40005
:02000600850073
:02000700E10115
:02000800AA014B
:02000900A00B4A
:02000A0069800B
:02000B00B7FF3D
:02000C00CCFE28
:02000D00CEFF24
:02000E00AFFE43
:02000F00C7FF29
:02001000710E6F
:02001100850068
:02001200A40543
:02001300850066
:02001400B5FF36
:02001500C4FF26
:02001600A4FF45
:02001700850062
:02001800C4FF23
:02001900B00035
:02001A00F200F2
:02001B00F400EF
:02001C0085005D
:02001D00E101FF
:02001E00AA0135
:02001F00A00B34
:020020006980F5
:02002100B7FF27
:02002200CCFE12
:02002300CEFF0E
:02002400AFFE2D
:02002500C7FF13
:0200260071283F
:02002700850052
:02002800B5FF22
:02002900A40130
:02002A0085004F
:02002B00C4FF10
:02002C00B0FF23
:02002D0085004C
:02002E00A40824
:02002F0085004A
:02003000B5FF1A
:02003100C4FF0A
:02003200A4FF29
:02003300850046
:02003400C4FF07
:02003500B00019
:02003600F200D6
:02003700F400D3
:02003800850041
:02003900E101E3
:02003A00AA0119
:02003B00A00B18
:02003C006980D9
:02003D00B7FF0B
:02003E00CCFEF6
:02003F00CEFFF2
:02004000AFFE11
:02004100C7FFF7
:02004200712823
:02004300850036
:02004400B5FF06
:02004500A40114
:02004600850033
:02004700C4FFF4
:02004800B0FF07
:02004900850030
:02004A00A40907
:02004B0085002E
:02004C00B5FFFE
:02004D00C4FFEE
:02004E00A4FF0D
:02004F0085002A
:02005000C4FFEB
:02005100B000FD
:02005200F200BA
:02005300F400B7
:02005400850025
:02005500E101C7
:02005600AA01FD
:02005700A00BFC
:020058006980BD
:02005900B7FFEF
:02005A00CCFEDA
:02005B00CEFFD6
:02005C00AFFEF5
:02005D00C7FFDB
:02005E00712807
:02005F0085001A
:02006000B5FFEA
:02006100A401F8
:02006200850017
:02006300C4FFD8
:02006400B0FFEB
:02006500850014
:02006600A402F2
:02006700850012
:02006800B5FFE2
:02006900C4FFD2
:02006A00A4FFF1
:02006B0085000E
:02006C00C4FFCF
:02006D00B000E1
:02006E00F2009E
:02006F00F4009B
:02007000850009
:02007100E101AB
:02007200AA01E1
:02007300A00BE0
:020074006980A1
:02007500B7FFD3
:02007600CCFEBE
:02007700CEFFBA
:02007800AFFED9
:02007900C7FFBF
:02007A0071BF54
:02007B008500FE
:02007C00B5FFCE
:02007D00A401DC
:02007E008500FB
:02007F00C4FFBC
:02008000B0FFCF
:020081008500F8
:02008200A401D7
:020083008500F6
:02008400B5FFC6
:02008500C4FFB6
:02008600A4FFD5
:020087008500F2
:02008800C4FFB3
:02008900B000C5
:02008A00F20082
:02008B00F4007F
:02008C008500ED
:02008D00E1018F
:02008E00AA01C5
:02008F00A00BC4
:02009000698085
:02009100B7FFB7
:02009200CCFEA2
:02009300CEFF9E
:02009400AFFEBD
:02009500C7FFA3
:020096007128CF
:020097008500E2
:02009800B5FFB2
:02009900A401C0
:02009A008500DF
:02009B00C4FFA0
:02009C00B0FFB3
:02009D008500DC
:02009E00A407B5
:02009F008500DA
:0200A000B5FFAA
:0200A100C4FF9A
:0200A200A4FFB9
:0200A3008500D6
:0200A400C4FF97
:0200A500B000A9
:0200A600F20066
:0200A700F40063
:0200A8008500D1
:0200A900E10173
:0200AA00AA01A9
:0200AB00A00BA8
:0200AC00698069
:0200AD00B7FF9B
:0200AE00CCFE86
:0200AF00CEFF82
:0200B000AFFEA1
:0200B100C7FF87
:0200B2007128B3
:0200B3008500C6
:0200B400B5FF96
:0200B500A401A4
:0200B6008500C3
:0200B700C4FF84
:0200B800B0FF97
:0200B9008500C0
:0200BA00A4019F
:0200BB008500BE
:0200BC00B5FF8E
:0200BD00C4FF7E
:0200BE00A4FF9D
:0200BF008500BA
:0200C000C4FF7B
:0200C100B0008D
:0200C200F2004A
:0200C300F40047
:0200C4008500B5
:0200C500E10157
:0200C600AA018D
:0200C700A00B8C
:0200C80069804D
:0200C900B7FF7F
:0200CA00CCFE6A
:0200CB00CEFF66
:0200CC00AFFE85
:0200CD00C7FF6B
:0200CE00712897
:0200CF008500AA
:0200D000B5FF7A
:0200D100A40188
:0200D2008500A7
:0200D300C4FF68
:0200D400B0FF7B
:0200D5008500A4
:0200D600A4077D
:0200D7008500A2
:0200D800B5FF72
:0200D900C4FF62
:0200DA00A4FF81
:0200DB0085009E
:0200DC00C4FF5F
:0200DD00B00071
:0200DE00F2002E
:0200DF00F4002B
:0200E000850099
:0200E100E1013B
:0200E200AA0171
:0200E300A00B70
:0200E400698031
:0200E500B7FF63
:0200E600CCFE4E
:0200E700CEFF4A
:0200E800AFFE69
:0200E900C7FF4F
:0200EA0071287B
:0200EB0085008E
:0200EC00B5FF5E
:0200ED00A4016C
:0200EE0085008B
:0200EF00C4FF4C
:0200F000B0FF5F
:0200F100850088
:0200F200A40464
:0200F300850086
:0200F400B5FF56
:0200F500C4FF46
:0200F600A4FF65
:0200F700850082
:0200F800C4FF43
:0200F900B00055
:0200FA00F20012
:0200FB00F4000F
:0200FC0085007D
:0200FD00E1011F
:0200FE00AA0155
:0200FF00A00B54
:02010000698014
:02010100B7FF46
:02010200CCFE31
:02010300CEFF2D
:02010400AFFE4C
:02010500C7FF32
:0201060071BFC7
:02010700850071
:02010800B5FF41
:02010900A4014F
:02010A0085006E
:02010B00C4FF2F
:02010C00B0FF42
:02010D00D5FF1C
:02010E0085006A
:02010F00B5FF3A
:02011000C4FE2B
:02011100850067
:02011200B4FE39
:02011300B5FF36
:02011400C4FF26
:02011500A4FF45
:02011600850062
:02011700C4FF23
:02011800C4FE23
:02011900B0FF35
:02011A0085005E
:02011B00A4102E
:02011C00C40914
:02011D00A450EC
:02011E00C40A11
:02011F00850059
:02012000B7FE28
:02012100BE001E
:02012200C6FE17
:02012300AF0328
:02012400C7FF13
:02012500BEFE1C
:02012600BFFF19
:02012700FAC01C
:02012800850050
:02012900B5FF20
:02012A00C4FE11
:02012B0085004D
:02012C00B4FE1F
:02012D00B5FF1C
:02012E00C4FF0C
:02012F00A4FF2B
:02013000850048
:02013100C4FF09
:02013200C4FE09
:02013300B0FF1B
:02013400850044
:02013500B40B09
:02013600D16A8C
:02013700A40022
:02013800850040
:02013900B5FF10
:02013A00C4FF00
:02013B00A4FF1F
:02013C0085003C
:02013D00C4FFFD
:02013E00B0000F
:02013F00A40A10
:02014000850038
:02014100B5FF08
:02014200C4FFF8
:02014300A4FF17
:02014400850034
:02014500C4FFF5
:02014600B00007
:02014700B7FF00
:02014800B409F8
:02014900A0FE16
:02014A0085002E
:02014B00B5FFFE
:02014C00C7FFEB
:02014D00A7FF0A
:02014E0085002A
:02014F00C7FFE8
:02015000BF00EE
:02015100850027
:02015200B5FFF7
:02015300C4FFE7
:02015400A4FF06
:02015500850023
:02015600C4FFE4
:02015700B000F6
:02015800F200B3
:02015900F400B0
:02015A0085001E
:02015B00E101C0
:02015C00AA01F6
:02015D00A00BF5
:02015E006980B6
:02015F00B7FFE8
:02016000CCFED3
:02016100CEFFCF
:02016200AFFEEE
:02016300C7FFD4
:0201640075E73D
:02016500850013
:02016600B7FFE1
:02016700AF04E3
:02016800C7FFCF
:02016900A400F0
:02016A0085000E
:02016B00B5FFDE
:02016C00C4FFCE
:02016D00A4FFED
:02016E0085000A
:02016F00C4FFCB
:02017000B000DD
:02017100B6FED8
:02017200B803D0
:02017300850005
:02017400B5FFD5
:02017500C4FFC5
:02017600A4FFE4
:02017700850001
:02017800C4FFC2
:02017900B000D4
:02017A00B7FFCD
:02017B00B409C5
:02017C00A0FEE3
:02017D008500FB
:02017E00B5FFCB
:02017F00C4FFBB
:02018000A4FFDA
:020181008500F7
:02018200C4FFB8
:02018300B000CA
:020184008500F4
:02018500B5FFC4
:02018600C7FFB1
:02018700A7FFD0
:020188008500F0
:02018900C7FFAE
:02018A00BF00B4
:02018B00F20080
:02018C00F4007D
:02018D008500EB
:02018E00E1018D
:02018F00AA01C3
:02019000A00BC2
:02019100698083
:02019200B7FFB5
:02019300CCFEA0
:02019400CEFF9C
:02019500AFFEBB
:02019600C7FFA1
:0201970075A051
:020198008500E0
:02019900B7FEAF
:02019A00BE00A5
:02019B00C6FE9E
:02019C00AF03AF
:02019D00C7FF9A
:02019E00BEFEA3
:02019F00BFFFA0
:0201A000FAC0A3
:0201A100F2006A
:0201A200F40067
:0201A3008500D5
:0201A400E10177
:0201A500AA01AD
:0201A600A00BAC
:0201A70069806D
:0201A800B7FF9F
:0201A900CCFE8A
:0201AA00CEFF86
:0201AB00AFFEA5
:0201AC00C7FF8B
:0201AD00748458
:0201AE008500CA
:0201AF00B6FE9A
:0201B000B80392
:0201B100B6098D
:0201B200C9FF83
:0201B300C8FE84
:0201B400A401A4
:0201B500C40B79
:0201B6008500C2
:0201B700B7FE91
:0201B800BE0087
:0201B900C6FE80
:0201BA00AF0391
:0201BB00C7FF7C
:0201BC00BEFE85
:0201BD00BFFF82
:0201BE00FAC085
:0201BF008500B9
:0201C000B5FF89
:0201C100C4FE7A
:0201C2008500B6
:0201C300B4FE88
:0201C400B5FF85
:0201C500C4FF75
:0201C600A4FF94
:0201C7008500B1
:0201C800C4FF72
:0201C900C4FE72
:0201CA00B0FF84
:0201CB008500AD
:0201CC00B7FF7B
:0201CD00AFFF82
:0201CE00C7FF69
:0201CF00B6FE7A
:0201D000B80372
:0201D100CC0060
:0201D200A60B7A
:0201D300D2391F
:0201D400B40A6B
:0201D500A65032
:0201D600E20342
:0201D700BC006A
:0201D800A60C73
:0201D900D24909
:0201DA00BC0067
:0201DB00A60C70
:0201DC00E2053A
:0201DD00B40A62
:0201DE00B0FF70
:0201DF00A60B6D
:0201E000E21E1D
:0201E100720D9D
:0201E200B40A5D
:0201E300B0FF6B
:0201E400850094
:0201E500B5FF64
:0201E600C4FF54
:0201E700A4FF73
:0201E800850090
:0201E900C4FF51
:0201EA00B00063
:0201EB00F20020
:0201EC00F4001D
:0201ED0085008B
:0201EE00E1012D
:0201EF00AA0163
:0201F000A00B62
:0201F100698023
:0201F200B7FF55
:0201F300CCFE40
:0201F400CEFF3C
:0201F500AFFE5B
:0201F600C7FF41
:0201F70074ECA6
:0201F800850080
:0201F900B5FF50
:0201FA00A6015C
:0201FB0085007D
:0201FC00C6FF3C
:0201FD00BAFF47
:0201FE00D10E20
:0201FF00F2000C
:02020000F40008
:02020100850076
:02020200E10118
:02020300AA014E
:02020400A00B4D
:0202050069800E
:02020600B7FF40
:02020700CCFE2B
:02020800CEFF27
:02020900AFFE46
:02020A00C7FF2C
:02020B007295EA
:02020C0071D4AB
:02020D00F200FD
:02020E00F400FA
:02020F00850068
:02021000E1010A
:02021100AA0140
:02021200A00B3F
:02021300698000
:02021400B7FF32
:02021500CCFE1D
:02021600CEFF19
:02021700AFFE38
:02021800C7FF1E
:0202190074B6B9
:02021A0085005D
:02021B00B7FE2C
:02021C00BE0022
:02021D00C6FE1B
:02021E00AF032C
:02021F00C7FF17
:02022000BEFE20
:02022100BFFF1D
:02022200FAC020
:02022300800059
:02022400A00137
:02022500850052
:02022600B7FE21
:02022700BE0017
:02022800C6FE10
:02022900AF0321
:02022A00C7FF0C
:02022B00BEFE15
:02022C00BFFF12
:02022D00FAC015
:02022E00850049
:02022F00B5FF19
:02023000C4FE0A
:02023100850046
:02023200B4FE18
:02023300B5FF15
:02023400C4FF05
:02023500A4FF24
:02023600850041
:02023700C4FF02
:02023800C4FE02
:02023900B0FF14
:02023A0085003D
:02023B00B7FE0C
:02023C00BE0002
:02023D00C6FEFB
:02023E00AF030C
:02023F00C7FFF7
:02024000BEFE00
:02024100BFFFFD
:02024200FAC000
:02024300850034
:02024400B5FF04
:02024500C4FEF5
:02024600850031
:02024700B4FE03
:02024800B5FF00
:02024900C4FFF0
:02024A00A4FF0F
:02024B0085002C
:02024C00C4FFED
:02024D00C4FEED
:02024E00B0FFFF
:02024F00850028
:02025000B40BED
:02025100D138A2
:02025200A40006
:02025300850024
:02025400B5FFF4
:02025500C4FFE4
:02025600A4FF03
:02025700850020
:02025800C4FFE1
:02025900B000F3
:02025A00A40AF4
:02025B0085001C
:02025C00B5FFEC
:02025D00C4FFDC
:02025E00A4FFFB
:02025F00850018
:02026000C4FFD9
:02026100B000EB
:02026200B7FFE4
:02026300B409DC
:02026400A0FEFA
:02026500850012
:02026600B5FFE2
:02026700C4FFD2
:02026800A4FFF1
:0202690085000E
:02026A00C4FFCF
:02026B00B000E1
:02026C0085000B
:02026D00B5FFDB
:02026E00C7FFC8
:02026F00A7FFE7
:02027000850007
:02027100C7FFC5
:02027200BF00CB
:02027300F20097
:02027400F40094
:02027500850002
:02027600E101A4
:02027700AA01DA
:02027800A00BD9
:0202790069809A
:02027A00B7FFCC
:02027B00CCFEB7
:02027C00CEFFB3
:02027D00AFFED2
:02027E00C7FFB8
:02027F007738CE
:020280008000FC
:020281008500F6
:02028200B7FEC5
:02028300BE00BB
:02028400C6FEB4
:02028500AF03C5
:02028600C7FFB0
:02028700BEFEB9
:02028800BFFFB6
:02028900FAC0B9
:02028A008000F2
:02028B00A001D0
:02028C008500EB
:02028D00B7FEBA
:02028E00BE00B0
:02028F00C6FEA9
:02029000AF03BA
:02029100C7FFA5
:02029200BEFEAE
:02029300BFFFAB
:02029400FAC0AE
:020295008500E2
:02029600B5FFB2
:02029700C4FEA3
:020298008500DF
:02029900B4FEB1
:02029A00B5FFAE
:02029B00C4FF9E
:02029C00A4FFBD
:02029D008500DA
:02029E00C4FF9B
:02029F00C4FE9B
:0202A000B0FFAD
:0202A1008500D6
:0202A200B6FEA6
:0202A300B8039E
:0202A4008500D3
:0202A500B5FFA3
:0202A600C4FF93
:0202A700A4FFB2
:0202A8008500CF
:0202A900C4FF90
:0202AA00B000A2
:0202AB00F2005F
:0202AC00F4005C
:0202AD008500CA
:0202AE00E1016C
:0202AF00AA01A2
:0202B000B7FF96
:0202B100BF008C
:0202B200AF0992
:0202B300230026
:0202B40069805F
:0202B500F880CF
:0202B60072C60E
:0202B70072C70C
:0202B80072DAF8
:0202B9007307C9
:0202BA0073349B
:0202BB0073616D
:0202BC00739439
:0202BD0072D0FD
:0202BE0073C10A
:0202BF0073D9F1
:0202C00073F1D8
:0202C100747B4C
:0202C200747B4B
:0202C3007411B4
:0202C400743490
:0202C500747B48
:0202C600747B47
:0202C7008500B0
:0202C800B60975
:0202C900B8FE7D
:0202CA003400FE
:0202CB00C8FE6B
:0202CC00B8FF79
:0202CD005400DB
:0202CE00C8FF67
:0202CF00747B3E
:0202D0008500A7
:0202D100B6096C
:0202D20095FF96
:0202D300B8FE73
:0202D4003400F4
:0202D500C8FE61
:0202D600B8FF6F
:0202D7003400F1
:0202D800C8FF5D
:0202D900747B34
:0202DA0085009D
:0202DB00B60962
:0202DC00A8FC7C
:0202DD0085009A
:0202DE00B5FF6A
:0202DF00C4FF5A
:0202E000A4FF79
:0202E100850096
:0202E200C4FF57
:0202E300B00069
:0202E400A8FE72
:0202E500850092
:0202E600B5FF62
:0202E700C4FF52
:0202E800A4FF71
:0202E90085008E
:0202EA00C4FF4F
:0202EB00B00061
:0202EC00F2001E
:0202ED00F4001B
:0202EE00850089
:0202EF00E1012B
:0202F000AA0161
:0202F100A00B60
:0202F200698021
:0202F300B7FF53
:0202F400CCFE3E
:0202F500CEFF3A
:0202F600AFFE59
:0202F700C7FF3F
:0202F80075A0EF
:0202F900F20011
:0202FA00F4000E
:0202FB0085007C
:0202FC00E1011E
:0202FD00AA0154
:0202FE00A00B53
:0202FF00698014
:02030000B7FF45
:02030100CCFE30
:02030200CEFF2C
:02030300AFFE4B
:02030400C7FF31
:02030500749DE5
:02030600747B06
:0203070085006F
:02030800B60934
:02030900A8FC4E
:02030A0085006C
:02030B00B5FF3C
:02030C00C4FF2C
:02030D00A4FF4B
:02030E00850068
:02030F00C4FF29
:02031000B0003B
:02031100A8FE44
:02031200850064
:02031300B5FF34
:02031400C4FF24
:02031500A4FF43
:02031600850060
:02031700C4FF21
:02031800B00033
:02031900F200F0
:02031A00F400ED
:02031B0085005B
:02031C00E101FD
:02031D00AA0133
:02031E00A00B32
:02031F006980F3
:02032000B7FF25
:02032100CCFE10
:02032200CEFF0C
:02032300AFFE2B
:02032400C7FF11
:0203250075C39E
:02032600F200E3
:02032700F400E0
:0203280085004E
:02032900E101F0
:02032A00AA0126
:02032B00A00B25
:02032C006980E6
:02032D00B7FF18
:02032E00CCFE03
:02032F00CEFFFF
:02033000AFFE1E
:02033100C7FF04
:02033200749DB8
:02033300747BD9
:02033400850042
:02033500B60907
:02033600A8FE1F
:0203370085003F
:02033800B5FF0F
:02033900C4FFFF
:02033A00A4FF1E
:02033B0085003B
:02033C00C4FFFC
:02033D00B0000E
:02033E00A8FC19
:02033F00850037
:02034000B5FF07
:02034100C4FFF7
:02034200A4FF16
:02034300850033
:02034400C4FFF4
:02034500B00006
:02034600F200C3
:02034700F400C0
:0203480085002E
:02034900E101D0
:02034A00AA0106
:02034B00A00B05
:02034C006980C6
:02034D00B7FFF8
:02034E00CCFEE3
:02034F00CEFFDF
:02035000AFFEFE
:02035100C7FFE4
:0203520075E74D
:02035300F200B6
:02035400F400B3
:02035500850021
:02035600E101C3
:02035700AA01F9
:02035800A00BF8
:020359006980B9
:02035A00B7FFEB
:02035B00CCFED6
:02035C00CEFFD2
:02035D00AFFEF1
:02035E00C7FFD7
:02035F00749D8B
:02036000747BAC
:02036100850015
:02036200B609DA
:02036300A8FCF4
:02036400850012
:02036500B5FFE2
:02036600C4FFD2
:02036700A4FFF1
:0203680085000E
:02036900C4FFCF
:02036A00B000E1
:02036B00A8FEEA
:02036C0085000A
:02036D00B5FFDA
:02036E00C4FFCA
:02036F00A4FFE9
:02037000850006
:02037100C4FFC7
:02037200B000D9
:02037300F20096
:02037400F40093
:02037500850001
:02037600E101A3
:02037700AA01D9
:02037800A00BD8
:02037900698099
:02037A00B7FFCB
:02037B00CCFEB6
:02037C00CEFFB2
:02037D00AFFED1
:02037E00C7FFB7
:02037F0077C342
:020380008500F6
:02038100B609BB
:02038200B8FEC3
:02038300C8FCB4
:02038400B8FFC0
:02038500C8FDB1
:02038600F20083
:02038700F40080
:020388008500EE
:02038900E10190
:02038A00AA01C6
:02038B00A00BC5
:02038C00698086
:02038D00B7FFB8
:02038E00CCFEA3
:02038F00CEFF9F
:02039000AFFEBE
:02039100C7FFA4
:02039200749D58
:02039300747B79
:020394008500E2
:02039500B609A7
:02039600A8FCC1
:020397008500DF
:02039800B5FFAF
:02039900C4FF9F
:02039A00A4FFBE
:02039B008500DB
:02039C00C4FF9C
:02039D00B000AE
:02039E00A8FEB7
:02039F008500D7
:0203A000B5FFA7
:0203A100C4FF97
:0203A200A4FFB6
:0203A3008500D3
:0203A400C4FF94
:0203A500B000A6
:0203A600F20063
:0203A700F40060
:0203A8008500CE
:0203A900E10170
:0203AA00AA01A6
:0203AB00A00BA5
:0203AC00698066
:0203AD00B7FF98
:0203AE00CCFE83
:0203AF00CEFF7F
:0203B000AFFE9E
:0203B100C7FF84
:0203B20077C30F
:0203B300F20056
:0203B400F40053
:0203B5008500C1
:0203B600E10163
:0203B700AA0199
:0203B800A00B98
:0203B900698059
:0203BA00B7FF8B
:0203BB00CCFE76
:0203BC00CEFF72
:0203BD00AFFE91
:0203BE00C7FF77
:0203BF00749D2B
:0203C000747B4C
:0203C1008500B5
:0203C200B6097A
:0203C300B8FE82
:0203C400BBFC80
:0203C500030033
:0203C600C8FC71
:0203C700B8FF7D
:0203C800BBFD7B
:0203C90003002F
:0203CA00C8FD6C
:0203CB00F2003E
:0203CC00F4003B
:0203CD008500A9
:0203CE00E1014B
:0203CF00AA0181
:0203D000A00B80
:0203D100698041
:0203D200B7FF73
:0203D300CCFE5E
:0203D400CEFF5A
:0203D500AFFE79
:0203D600C7FF5F
:0203D700749D13
:0203D800747B34
:0203D90085009D
:0203DA00B60962
:0203DB00B8FE6A
:0203DC00BBFC68
:0203DD0013000B
:0203DE00C8FC59
:0203DF00B8FF65
:0203E000BBFD63
:0203E100130007
:0203E200C8FD54
:0203E300F20026
:0203E400F40023
:0203E500850091
:0203E600E10133
:0203E700AA0169
:0203E800A00B68
:0203E900698029
:0203EA00B7FF5B
:0203EB00CCFE46
:0203EC00CEFF42
:0203ED00AFFE61
:0203EE00C7FF47
:0203EF00749DFB
:0203F000747B1C
:0203F100850085
:0203F200B6094A
:0203F300B8FE52
:0203F400BBFC50
:0203F5000340C3
:0203F6001300F2
:0203F7009FFF66
:0203F8003DC006
:0203F9000300FF
:0203FA00C8FC3D
:0203FB00B8FF49
:0203FC00BBFD47
:0203FD000300FB
:0203FE001300EA
:0203FF009FFF5E
:020400003DC0FD
:020401000300F6
:02040200C8FD33
:02040300F20005
:02040400F40002
:02040500850070
:02040600E10112
:02040700AA0148
:02040800A00B47
:02040900698008
:02040A00B7FF3A
:02040B00CCFE25
:02040C00CEFF21
:02040D00AFFE40
:02040E00C7FF26
:02040F00749DDA
:02041000747BFB
:02041100850064
:02041200B60929
:02041300A8FE41
:02041400850061
:02041500B5FF31
:02041600C4FF21
:02041700A4FF40
:0204180085005D
:02041900C4FF1E
:02041A00B00030
:02041B00A8FC3B
:02041C00850059
:02041D00B5FF29
:02041E00C4FF19
:02041F00A4FF38
:02042000850055
:02042100C4FF16
:02042200B00028
:02042300F200E5
:02042400F400E2
:02042500850050
:02042600E101F2
:02042700AA0128
:02042800A00B27
:020429006980E8
:02042A00B7FF1A
:02042B00CCFE05
:02042C00CEFF01
:02042D00AFFE20
:02042E00C7FF06
:02042F00784E05
:02043000850045
:02043100A50123
:02043200D123D4
:020433007469EA
:02043400850041
:02043500B60906
:02043600A8FE1E
:0204370085003E
:02043800B5FF0E
:02043900C4FFFE
:02043A00A4FF1D
:02043B0085003A
:02043C00C4FFFB
:02043D00B0000D
:02043E00A8FC18
:02043F00850036
:02044000B5FF06
:02044100C4FFF6
:02044200A4FF15
:02044300850032
:02044400C4FFF3
:02044500B00005
:02044600F200C2
:02044700F400BF
:0204480085002D
:02044900E101CF
:02044A00AA0105
:02044B00A00B04
:02044C006980C5
:02044D00B7FFF7
:02044E00CCFEE2
:02044F00CEFFDE
:02045000AFFEFD
:02045100C7FFE3
:02045200784EE2
:02045300850022
:02045400D101D4
:020455007469C8
:0204560085001F
:02045700B609E4
:02045800A401FD
:02045900C8FCDD
:02045A00C9FDDA
:02045B00F200AD
:02045C00F400AA
:02045D00850018
:02045E00E101BA
:02045F00AA01F0
:02046000A00BEF
:020461006980B0
:02046200B7FFE2
:02046300CCFECD
:02046400CEFFC9
:02046500AFFEE8
:02046600C7FFCE
:02046700749D82
:02046800747BA3
:0204690085000C
:02046A00B609D1
:02046B00C9FCCA
:02046C00C9FDC8
:02046D00F2009B
:02046E00F40098
:02046F00850006
:02047000E101A8
:02047100AA01DE
:02047200A00BDD
:0204730069809E
:02047400B7FFD0
:02047500CCFEBB
:02047600CEFFB7
:02047700AFFED6
:02047800C7FFBC
:02047900749D70
:02047A00747B91
:02047B008500FA
:02047C00B7FEC9
:02047D00BE00BF
:02047E00C6FEB8
:02047F00AF03C9
:02048000C7FFB4
:02048100BEFEBD
:02048200BFFFBA
:02048300FAC0BD
:020484008500F1
:02048500B5FFC1
:02048600C4FEB2
:020487008500EE
:02048800B4FEC0
:02048900B5FFBD
:02048A00C4FFAD
:02048B00A4FFCC
:02048C008500E9
:02048D00C4FFAA
:02048E00C4FEAA
:02048F00B0FFBC
:020490008500E5
:02049100B709A9
:02049200AF02B7
:02049300C70997
:020494008500E1
:02049500B7FEB0
:02049600BE00A6
:02049700C6FE9F
:02049800AF03B0
:02049900C7FF9B
:02049A00BEFEA4
:02049B00BFFFA1
:02049C00FAC0A4
:02049D008500D8
:02049E00B5FFA8
:02049F00C4FE99
:0204A0008500D5
:0204A100B4FEA7
:0204A200B5FFA4
:0204A300C4FF94
:0204A400A4FFB3
:0204A5008500D0
:0204A600C4FF91
:0204A700C4FE91
:0204A800B0FFA3
:0204A9008500CC
:0204AA00B70990
:0204AB00AFFEA2
:0204AC00C7097E
:0204AD008500C8
:0204AE00B7FE97
:0204AF00BE008D
:0204B000C6FE86
:0204B100AF0397
:0204B200C7FF82
:0204B300BEFE8B
:0204B400BFFF88
:0204B500FAC08B
:0204B6008500BF
:0204B700B5FF8F
:0204B800C4FE80
:0204B9008500BC
:0204BA00B4FE8E
:0204BB00B5FF8B
:0204BC00C4FF7B
:0204BD00A4FF9A
:0204BE008500B7
:0204BF00C4FF78
:0204C000C4FE78
:0204C100B0FF8A
:0204C2008500B3
:0204C300B6FE83
:0204C400B8037B
:0204C500B70A74
:0204C600CC0068
:0204C700AF0183
:0204C800C70A61
:0204C9008500AC
:0204CA00B7FE7B
:0204CB00BE0071
:0204CC00C6FE6A
:0204CD00AF037B
:0204CE00C7FF66
:0204CF00BEFE6F
:0204D000BFFF6C
:0204D100FAC06F
:0204D2008500A3
:0204D300B5FF73
:0204D400C4FE64
:0204D5008500A0
:0204D600B4FE72
:0204D700B5FF6F
:0204D800C4FF5F
:0204D900A4FF7E
:0204DA0085009B
:0204DB00C4FF5C
:0204DC00C4FE5C
:0204DD00B0FF6E
:0204DE00850097
:0204DF00B70A5A
:0204E000AFFF6C
:0204E100BC005D
:0204E200850093
:0204E300B7FE62
:0204E400BE0058
:0204E500C6FE51
:0204E600AF0362
:0204E700C7FF4D
:0204E800BEFE56
:0204E900BFFF53
:0204EA00FAC056
:0204EB00D5FF3B
:0204EC00850089
:0204ED00B5FF59
:0204EE00C4FE4A
:0204EF00850086
:0204F000B4FE58
:0204F100B5FF55
:0204F200C4FF45
:0204F300A4FF64
:0204F400850081
:0204F500C4FF42
:0204F600C4FE42
:0204F700B0FF54
:0204F80085007D
:0204F900B6FE4D
:0204FA00B80345
:0204FB0085007A
:0204FC00B5FF4A
:0204FD00C4FF3A
:0204FE00A4FF59
:0204FF00850076
:02050000C4FF36
:02050100B00048
:02050200F20005
:02050300F40002
:02050400850070
:02050500E10112
:02050600AA0148
:02050700A00B47
:02050800698008
:02050900B7FF3A
:02050A00CCFE25
:02050B00CEFF21
:02050C00AFFE40
:02050D00C7FF26
:02050E00754B2B
:02050F00850065
:02051000B5FF35
:02051100A70140
:02051200850062
:02051300C7FF20
:02051400BFFF27
:0205150085005F
:02051600B5FF2F
:02051700C4FF1F
:02051800A4FF3E
:0205190085005B
:02051A00C4FF1C
:02051B00B0002E
:02051C00850058
:02051D00B6FE28
:02051E00B8041F
:02051F00850055
:02052000B5FF25
:02052100C4FF15
:02052200A4FF34
:02052300850051
:02052400C4FF12
:02052500B00024
:02052600F200E1
:02052700F400DE
:0205280085004C
:02052900E101EE
:02052A00AA0124
:02052B00A00B23
:02052C006980E4
:02052D00B7FF16
:02052E00CCFE01
:02052F00CEFFFD
:02053000AFFE1C
:02053100C7FF02
:02053200754B07
:02053300850041
:02053400B5FF11
:02053500A7011C
:0205360085003E
:02053700C7FFFC
:02053800BFFF03
:0205390085003B
:02053A00B5FF0B
:02053B00A70116
:02053C00850038
:02053D00C7FFF6
:02053E00BFFFFD
:02053F00430077
:02054000850034
:02054100340084
:02054200850032
:02054300B7FE01
:02054400BE00F7
:02054500C6FEF0
:02054600AF0301
:02054700C7FFEC
:02054800BEFEF5
:02054900BFFFF2
:02054A00FAC0F5
:02054B00850029
:02054C00B5FFF9
:02054D00C4FEEA
:02054E00850026
:02054F00B4FEF8
:02055000B5FFF5
:02055100C4FFE5
:02055200A4FF04
:02055300850021
:02055400C4FFE2
:02055500C4FEE2
:02055600B0FFF4
:0205570085001D
:02055800B6FEED
:02055900B803E5
:02055A0085001A
:02055B00B5FFEA
:02055C00C4FFDA
:02055D00A4FFF9
:02055E00850016
:02055F00C4FFD7
:02056000B000E9
:02056100F200A6
:02056200F400A3
:02056300850011
:02056400E101B3
:02056500AA01E9
:02056600B7FFDD
:02056700BF00D3
:02056800AF09D9
:0205690023006D
:02056A006980A6
:02056B00F88016
:02056C00759484
:02056D00759483
:02056E00759086
:02056F00759085
:02057000759282
:02057100759281
:02057200759280
:0205730075947D
:02057400758A86
:02057500758689
:02057600758886
:02057700757C91
:02057800757C90
:02057900758E7D
:02057A00758C7E
:02057B00757C8D
:02057C00A400D9
:02057D008500F7
:02057E00B7FEC6
:02057F00BE00BC
:02058000C6FEB5
:02058100AF03C6
:02058200C7FFB1
:02058300BEFEBA
:02058400BFFFB7
:02058500FAC0BA
:02058600A41EB1
:02058700759667
:02058800A428A5
:02058900759665
:02058A00A43299
:02058B00759663
:02058C00A43C8D
:02058D00759661
:02058E00A44681
:02058F0075965F
:02059000A45075
:0205910075965D
:02059200A45A69
:0205930075965B
:02059400A4645D
:02059500759659
:020596008500DE
:02059700B7FEAD
:02059800BE00A3
:02059900C6FE9C
:02059A00AF03AD
:02059B00C7FF98
:02059C00BEFEA1
:02059D00BFFF9E
:02059E00FAC0A1
:02059F00D5FF86
:0205A0008500D4
:0205A100B5FFA4
:0205A200C4FE95
:0205A3008500D1
:0205A400B4FEA3
:0205A500B5FFA0
:0205A600C4FF90
:0205A700A4FFAF
:0205A8008500CC
:0205A900C4FF8D
:0205AA00C4FE8D
:0205AB00B0FF9F
:0205AC008500C8
:0205AD00B7FE97
:0205AE00BD038B
:0205AF00B60094
:0205B000BD0488
:0205B100B40094
:0205B200220025
:0205B300C40082
:0205B400BD0385
:0205B500B6018D
:0205B600BD0482
:0205B700B4018D
:0205B8006200DF
:0205B900C4017B
:0205BA008500BA
:0205BB00B7FE89
:0205BC00BE007F
:0205BD00C6FE78
:0205BE00AF0389
:0205BF00C7FF74
:0205C000BEFE7D
:0205C100BFFF7A
:0205C200FAC07D
:0205C3008500B1
:0205C400B5FF81
:0205C500C4FE72
:0205C6008500AE
:0205C700B4FE80
:0205C800B5FF7D
:0205C900C4FF6D
:0205CA00A4FF8C
:0205CB008500A9
:0205CC00C4FF6A
:0205CD00C4FE6A
:0205CE00B0FF7C
:0205CF008500A5
:0205D000B7FE74
:0205D100BD0368
:0205D200B60071
:0205D300BD0465
:0205D400B40071
:0205D5003200F2
:0205D600C4005F
:0205D700BD0362
:0205D800B6016A
:0205D900BD045F
:0205DA00B4016A
:0205DB005200CC
:0205DC00C40158
:0205DD00850097
:0205DE00B7FE66
:0205DF00BE005C
:0205E000C6FE55
:0205E100AF0366
:0205E200C7FF51
:0205E300BEFE5A
:0205E400BFFF57
:0205E500FAC05A
:0205E600D5FF3F
:0205E70085008D
:0205E800B5FF5D
:0205E900C4FE4E
:0205EA0085008A
:0205EB00B4FE5C
:0205EC00B5FF59
:0205ED00C4FF49
:0205EE00A4FF68
:0205EF00850085
:0205F000C4FF46
:0205F100C4FE46
:0205F200B0FF58
:0205F300850081
:0205F400B7FF4F
:0205F500AFF85D
:0205F600C7FF3D
:0205F700B6FE4E
:0205F800B80346
:0205F900B0014F
:0205FA008080FF
:0205FB00E10716
:0205FC00B80342
:0205FD00B0004C
:0205FE00CC022D
:0205FF00B8033F
:02060000B00147
:02060100CC0328
:02060200760B75
:02060300B8033A
:02060400B00044
:020605003400BF
:02060600CC0224
:02060700B80336
:02060800B0013F
:0206090054009B
:02060A00CC031F
:02060B00B80431
:02060C00B0013B
:02060D008080EB
:02060E00E10702
:02060F00B8042D
:02061000B00038
:02061100CC001B
:02061200B8042A
:02061300B00134
:02061400CC0117
:02061500761E4F
:02061600B80426
:02061700B00031
:020618003400AC
:02061900CC0013
:02061A00B80422
:02061B00B0012C
:02061C00540088
:02061D00CC010E
:02061E00CD0409
:02061F00CD0507
:02062000CD0605
:02062100CD0703
:02062200B7FF20
:02062300BE0017
:02062400BC0216
:0206250085004E
:02062600B5FF1E
:02062700C6FF0C
:02062800A6FF2B
:0206290085004A
:02062A00C6FF09
:02062B00BA0013
:02062C00850047
:02062D00B5FF17
:02062E00C4FF07
:02062F00A4FF26
:02063000850043
:02063100C4FF04
:02063200B00016
:02063300F200D3
:02063400F400D0
:0206350085003E
:02063600E101E0
:02063700AA0116
:02063800A00B15
:020639006980D6
:02063A00B7FF08
:02063B00CCFEF3
:02063C00CEFFEF
:02063D00AFFE0E
:02063E00C7FFF4
:02063F00788EB3
:02064000850033
:02064100B7FF01
:02064200BC06F4
:02064300BE00F7
:02064400220092
:02064500CC06E1
:02064600BC07EF
:02064700BE01F2
:0206480062004E
:02064900CC07DC
:02064A00BC08EA
:02064B0061004C
:02064C00CC08D8
:02064D00BC09E6
:02064E00610049
:02064F00CC09D4
:02065000850023
:02065100B5FFF3
:02065200A40101
:02065300850020
:02065400C4FFE1
:02065500B0FFF4
:0206560085001D
:02065700B5FFED
:02065800A601F9
:0206590085001A
:02065A00C6FFD9
:02065B00BAFFE4
:02065C00B7FFE6
:02065D00BE00DD
:02065E00BC03DB
:02065F00850014
:02066000B5FFE4
:02066100C6FFD2
:02066200A6FFF1
:02066300850010
:02066400C6FFCF
:02066500BA00D9
:0206660085000D
:02066700B5FFDD
:02066800C4FFCD
:02066900A4FFEC
:02066A00850009
:02066B00C4FFCA
:02066C00B000DC
:02066D00F20099
:02066E00F40096
:02066F00850004
:02067000E101A6
:02067100AA01DC
:02067200A00BDB
:0206730069809C
:02067400B7FFCE
:02067500CCFEB9
:02067600CEFFB5
:02067700AFFED4
:02067800C7FFBA
:02067900788E79
:02067A008500F9
:02067B00B7FFC7
:02067C00BC07B9
:02067D00BE00BD
:02067E00220058
:02067F00CC07A6
:02068000BC08B4
:02068100BE01B8
:02068200620014
:02068300CC08A1
:02068400BC09AF
:02068500610012
:02068600CC099D
:020687008500EC
:02068800B5FFBC
:02068900A401CA
:02068A008500E9
:02068B00C4FFAA
:02068C00B0FFBD
:02068D008500E6
:02068E00B5FFB6
:02068F00A601C2
:020690008500E3
:02069100C6FFA2
:02069200BAFFAD
:02069300B7FFAF
:02069400BE01A5
:02069500BC02A5
:020696008500DD
:02069700B5FFAD
:02069800C6FF9B
:02069900A6FFBA
:02069A008500D9
:02069B00C6FF98
:02069C00BA00A2
:02069D008500D6
:02069E00B5FFA6
:02069F00C4FF96
:0206A000A4FFB5
:0206A1008500D2
:0206A200C4FF93
:0206A300B000A5
:0206A400F20062
:0206A500F4005F
:0206A6008500CD
:0206A700E1016F
:0206A800AA01A5
:0206A900A00BA4
:0206AA00698065
:0206AB00B7FF97
:0206AC00CCFE82
:0206AD00CEFF7E
:0206AE00AFFE9D
:0206AF00C7FF83
:0206B000788E42
:0206B1008500C2
:0206B200B7FF90
:0206B300BC0782
:0206B400BE0086
:0206B500220021
:0206B600CC076F
:0206B700BC087D
:0206B800BE0181
:0206B9006200DD
:0206BA00CC086A
:0206BB00BC0978
:0206BC006100DB
:0206BD00CC0966
:0206BE008500B5
:0206BF00B5FF85
:0206C000A40193
:0206C1008500B2
:0206C200C4FF73
:0206C300B0FF86
:0206C4008500AF
:0206C500B5FF7F
:0206C600A6018B
:0206C7008500AC
:0206C800C6FF6B
:0206C900BAFF76
:0206CA00B7FF78
:0206CB00BE026D
:0206CC00BC036D
:0206CD008500A6
:0206CE00B5FF76
:0206CF00C6FF64
:0206D000A6FF83
:0206D1008500A2
:0206D200C6FF61
:0206D300BA006B
:0206D40085009F
:0206D500B5FF6F
:0206D600C4FF5F
:0206D700A4FF7E
:0206D80085009B
:0206D900C4FF5C
:0206DA00B0006E
:0206DB00F2002B
:0206DC00F40028
:0206DD00850096
:0206DE00E10138
:0206DF00AA016E
:0206E000A00B6D
:0206E10069802E
:0206E200B7FF60
:0206E300CCFE4B
:0206E400CEFF47
:0206E500AFFE66
:0206E600C7FF4C
:0206E700788E0B
:0206E80085008B
:0206E900B7FF59
:0206EA00BC084A
:0206EB00BE004F
:0206EC002200EA
:0206ED00CC0837
:0206EE00BC0945
:0206EF00BE014A
:0206F0006200A6
:0206F100CC0932
:0206F200850081
:0206F300B5FF51
:0206F400A4015F
:0206F50085007E
:0206F600C4FF3F
:0206F700B0FF52
:0206F80085007B
:0206F900B5FF4B
:0206FA00A60157
:0206FB00850078
:0206FC00C6FF37
:0206FD00BAFF42
:0206FE00B6FE46
:0206FF00B8033E
:02070000B00146
:020701008380F3
:02070200B80439
:02070300B00143
:020704008080F3
:020705002300CF
:02070600800170
:02070700B7FF3A
:02070800E115F9
:02070900B6FE3A
:02070A00BA0330
:02070B00BC042C
:02070C00C80023
:02070D00BC0529
:02070E00C80120
:02070F00B6FE34
:02071000BA0429
:02071100BC0624
:02071200C8001D
:02071300BC0721
:02071400C8011A
:0207150085005D
:02071600B7FE2C
:02071700BE0022
:02071800C6FE1B
:02071900AF032C
:02071A00C7FF17
:02071B00BEFE20
:02071C00BFFF1D
:02071D00FAC020
:02071E00B6FE25
:02071F00BA031B
:02072000BC0417
:020721003400A2
:02072200C8000D
:02072300BC0513
:0207240054007F
:02072500C80109
:02072600B6FE1D
:02072700BA0412
:02072800BC060D
:0207290054007A
:02072A00C80005
:02072B00BC0709
:02072C00540077
:02072D00C80101
:02072E00850044
:02072F00B7FE13
:02073000BE0009
:02073100C6FE02
:02073200AF0313
:02073300C7FFFE
:02073400BEFE07
:02073500BFFF04
:02073600FAC007
:02073700D5FFEC
:0207380085003A
:02073900B5FF0A
:02073A00C4FEFB
:02073B00850037
:02073C00B4FE09
:02073D00B5FF06
:02073E00C4FFF6
:02073F00A4FF15
:02074000850032
:02074100C4FFF3
:02074200C4FEF3
:02074300B0FF05
:0207440085002E
:02074500B7FFFC
:02074600AFF50D
:02074700C7FFEA
:02074800B6FEFB
:02074900B804F2
:02074A00B000FD
:02074B00CC06DA
:02074C00B804EF
:02074D00B001F9
:02074E00CC07D6
:02074F00B803ED
:02075000B000F7
:02075100CC02D8
:02075200B803EA
:02075300B001F3
:02075400CC03D4
:02075500CD04D1
:02075600CD05CF
:02075700CD08CB
:02075800CD09C9
:02075900A410EA
:02075A00CC0AC7
:02075B00AC04EC
:02075C00CC01CE
:02075D00AC06E8
:02075E00CC00CD
:02075F00F200A6
:02076000F400A3
:02076100850011
:02076200E101B3
:02076300AA01E9
:02076400A00BE8
:020765006980A9
:02076600B7FFDB
:02076700CCFEC6
:02076800CEFFC2
:02076900AFFEE1
:02076A00C7FFC7
:02076B00784EC6
:02076C00850006
:02076D00B7FFD4
:02076E00808089
:02076F00D112A5
:02077000F20095
:02077100F40092
:02077200850000
:02077300E101A2
:02077400AA01D8
:02077500A00BD7
:02077600698098
:02077700B7FFCA
:02077800CCFEB5
:02077900CEFFB1
:02077A00AFFED0
:02077B00C7FFB6
:02077C0075C343
:02077D008500F5
:02077E00B7FFC3
:02077F00BC08B4
:020780009001E6
:02078100CC08A2
:02078200BE0AAD
:02078300D92A71
:02078400AC02C5
:02078500CC01A5
:02078600A401CC
:02078700CC00A4
:02078800F2007D
:02078900F4007A
:02078A008500E8
:02078B00E1018A
:02078C00AA01C0
:02078D00A00BBF
:02078E00698080
:02078F00B7FFB2
:02079000CCFE9D
:02079100CEFF99
:02079200AFFEB8
:02079300C7FF9E
:0207940078F4F7
:020795008500DD
:02079600B7FFAB
:02079700AC08AC
:02079800CC0192
:02079900A401B9
:02079A00CC0091
:02079B00F2006A
:02079C00F40067
:02079D008500D5
:02079E00E10177
:02079F00AA01AD
:0207A000A00BAC
:0207A10069806D
:0207A200B7FF9F
:0207A300CCFE8A
:0207A400CEFF86
:0207A500AFFEA5
:0207A600C7FF8B
:0207A70078D008
:0207A8008500CA
:0207A900B7FF98
:0207AA00BE0A85
:0207AB00AAFFA3
:0207AC00CE0A73
:0207AD00775B78
:0207AE00B6FE95
:0207AF00BA038B
:0207B000BC0883
:0207B100C8007E
:0207B200BC0980
:0207B300C8017B
:0207B400B6FE8F
:0207B500BA0484
:0207B600BC0481
:0207B700C80078
:0207B800BC057E
:0207B900C80175
:0207BA008500B8
:0207BB00B7FE87
:0207BC00BE007D
:0207BD00C6FE76
:0207BE00AF0387
:0207BF00C7FF72
:0207C000BEFE7B
:0207C100BFFF78
:0207C200FAC07B
:0207C3008500AF
:0207C400B5FF7F
:0207C500C4FE70
:0207C6008500AC
:0207C700B4FE7E
:0207C800B5FF7B
:0207C900C4FF6B
:0207CA00A4FF8A
:0207CB008500A7
:0207CC00C4FF68
:0207CD00C4FE68
:0207CE00B0FF7A
:0207CF008500A3
:0207D000B7FF71
:0207D100AFF87F
:0207D200C7FF5F
:0207D300CD0750
:0207D400B6FE6F
:0207D500B80367
:0207D600B00170
:0207D700808020
:0207D800E10737
:0207D900B80363
:0207DA00B0006D
:0207DB00CC024E
:0207DC00B80360
:0207DD00B00169
:0207DE00CC034A
:0207DF0077EBB6
:0207E000BC0754
:0207E100A00175
:0207E200CC0742
:0207E300B80359
:0207E400B00063
:0207E5003400DE
:0207E600CC0243
:0207E700B80355
:0207E800B0015E
:0207E9005400BA
:0207EA00CC033E
:0207EB00B80450
:0207EC00B0015A
:0207ED0080800A
:0207EE00E10721
:0207EF00B8044C
:0207F000B00057
:0207F100CC0436
:0207F200B80449
:0207F300B00153
:0207F400CC0532
:0207F500780189
:0207F600BC073E
:0207F700A0015F
:0207F800CC072C
:0207F900B80442
:0207FA00B0004D
:0207FB003400C8
:0207FC00CC042B
:0207FD00B8043E
:0207FE00B00148
:0207FF005400A4
:02080000CC0525
:02080100BC0732
:02080200800173
:02080300CC0720
:02080400AC0244
:02080500CC0025
:02080600AC0440
:02080700CC0122
:02080800F200FC
:02080900F400F9
:02080A00850067
:02080B00E10109
:02080C00AA013F
:02080D00A00B3E
:02080E006980FF
:02080F00B7FF31
:02081000CCFE1C
:02081100CEFF18
:02081200AFFE37
:02081300C7FF1D
:02081400773833
:0208150085005C
:02081600B7FF2A
:02081700B6FE2B
:02081800B80323
:02081900B0012C
:02081A008080DC
:02081B00E109F1
:02081C00B6FE26
:02081D00BA041B
:02081E00BC0418
:02081F00C8000F
:02082000B6FE22
:02082100BA0417
:02082200BC0513
:02082300C8010A
:02082400782F2B
:02082500B6FE1D
:02082600BA0412
:02082700BC040F
:0208280034009A
:02082900C80005
:02082A00B6FE18
:02082B00BA040D
:02082C00BC0509
:02082D00540075
:02082E00C801FF
:02082F00BC0704
:02083000E109DC
:02083100B6FE11
:02083200BA0307
:02083300BC0205
:02083400C800FA
:02083500B6FE0D
:02083600BA0303
:02083700BC0300
:02083800C801F5
:02083900784401
:02083A00B6FE08
:02083B00BA03FE
:02083C00BC02FC
:02083D00340085
:02083E00C800F0
:02083F00B6FE03
:02084000BA03F9
:02084100BC03F6
:02084200540060
:02084300C801EA
:0208440085002D
:02084500B7FEFC
:02084600BE00F2
:02084700C6FEEB
:02084800AF03FC
:02084900C7FFE7
:02084A00BEFEF0
:02084B00BFFFED
:02084C00FAC0F0
:02084D00D5FFD5
:02084E00850023
:02084F00B5FFF3
:02085000C4FEE4
:02085100850020
:02085200B4FEF2
:02085300B5FFEF
:02085400C4FFDF
:02085500A4FFFE
:0208560085001B
:02085700C4FFDC
:02085800C4FEDC
:02085900B0FFEE
:02085A00850017
:02085B00B6FEE7
:02085C00B803DF
:02085D00B001E8
:02085E00BB04D9
:02085F00BF01D7
:020860004380D3
:02086100E91597
:020862004C80C8
:02086300E91E8C
:02086400B6FEDE
:02086500B803D6
:02086600B000E0
:02086700BB04D0
:02086800BF00CF
:020869004380CA
:02086A00E90C97
:02086B004C80BF
:02086C00E9158C
:02086D00800009
:02086E00850003
:02086F00B7FED2
:02087000BE00C8
:02087100C6FEC1
:02087200AF03D2
:02087300C7FFBD
:02087400BEFEC6
:02087500BFFFC3
:02087600FAC0C6
:020877008000FF
:02087800A0FFDF
:020879008500F8
:02087A00B7FEC7
:02087B00BE00BD
:02087C00C6FEB6
:02087D00AF03C7
:02087E00C7FFB2
:02087F00BEFEBB
:02088000BFFFB8
:02088100FAC0BB
:020882008000F4
:02088300A001D2
:020884008500ED
:02088500B7FEBC
:02088600BE00B2
:02088700C6FEAB
:02088800AF03BC
:02088900C7FFA7
:02088A00BEFEB0
:02088B00BFFFAD
:02088C00FAC0B0
:02088D00D5FF95
:02088E008500E3
:02088F00B5FFB3
:02089000C4FEA4
:020891008500E0
:02089200B4FEB2
:02089300B5FFAF
:02089400C4FF9F
:02089500A4FFBE
:020896008500DB
:02089700C4FF9C
:02089800C4FE9C
:02089900B0FFAE
:02089A008500D7
:02089B00B7FFA5
:02089C00AFFAB1
:02089D00C7FF93
:02089E00B6FEA4
:02089F00B8039C
:0208A000CC0486
:0208A100CD0385
:0208A200CD0285
:0208A300CD0185
:0208A400B80496
:0208A500CC0085
:0208A600A601A9
:0208A700CE057C
:0208A800BC048E
:0208A900BE058A
:0208AA0002004A
:0208AB00D10872
:0208AC00BC008E
:0208AD00BE0289
:0208AE002880A0
:0208AF00CE0277
:0208B000BC0189
:0208B100BE0384
:0208B20068805C
:0208B300CE0372
:0208B400BE057F
:0208B5002A8097
:0208B600CE056D
:0208B700D9095D
:0208B800BC0082
:0208B90020001D
:0208BA00658057
:0208BB00CC006F
:0208BC00BC017D
:0208BD00200019
:0208BE00220016
:0208BF00CC016A
:0208C00078A816
:0208C100B6FE81
:0208C200BC0276
:0208C300C80368
:0208C400BC0373
:0208C500C80465
:0208C6008500AB
:0208C700B7FE7A
:0208C800BE0070
:0208C900C6FE69
:0208CA00AF037A
:0208CB00C7FF65
:0208CC00BEFE6E
:0208CD00BFFF6B
:0208CE00FAC06E
:0208CF00D5FF53
:0208D0008500A1
:0208D100B5FF71
:0208D200C4FE62
:0208D30085009E
:0208D400B4FE70
:0208D500B5FF6D
:0208D600C4FF5D
:0208D700A4FF7C
:0208D800850099
:0208D900C4FF5A
:0208DA00C4FE5A
:0208DB00B0FF6C
:0208DC00850095
:0208DD00B6FE65
:0208DE00BB035A
:0208DF00DD0B2F
:0208E000BB0457
:0208E100BC0059
:0208E2002000F4
:0208E300CC0047
:0208E400BC0155
:0208E5006000B1
:0208E600CC0143
:0208E700B80354
:0208E800A0FF6F
:0208E900C80342
:0208EA0078DDB7
:0208EB00850086
:0208EC00B7FE55
:0208ED00BE004B
:0208EE00C6FE44
:0208EF00AF0355
:0208F000C7FF40
:0208F100BEFE49
:0208F200BFFF46
:0208F300FAC049
:0208F40085007D
:0208F500B5FF4D
:0208F600C4FE3E
:0208F70085007A
:0208F800B4FE4C
:0208F900B5FF49
:0208FA00C4FF39
:0208FB00A4FF58
:0208FC00850075
:0208FD00C4FF36
:0208FE00C4FE36
:0208FF00B0FF48
:02090000850070
:02090100B6FE40
:02090200BB0335
:02090300DD1104
:02090400BB0432
:02090500BC0034
:020906002000CF
:02090700CC0022
:02090800BC0130
:0209090060008C
:02090A00CC011E
:02090B00BC022C
:02090C00600089
:02090D00CC021A
:02090E00BC0328
:02090F00600086
:02091000CC0316
:02091100B80329
:02091200A0FF44
:02091300C80317
:0209140078DD8C
:0209150085005B
:02091600B7FE2A
:02091700BE0020
:02091800C6FE19
:02091900AF032A
:02091A00C7FF15
:02091B00BEFE1E
:02091C00BFFF1B
:02091D00FAC01E
:02091E00D5FF03
:00000001FF
